:020000040800F2
:1000000000000320950F0008E92F0008EB2F0008DF
:10001000ED2F0008EF2F0008F12F0008000000006E
:1000200000000000000000000000000061730008F4
:10003000F32F000800000000F17300087F6C000837
:10004000E50F0008E50F0008E50F0008E50F0008C0
:10005000E50F0008E50F0008F52F0008E50F000880
:10006000E50F0008E50F0008E50F0008E50F0008A0
:10007000E50F0008E50F0008E50F0008E50F000890
:10008000E50F0008E50F0008E50F0008E50F000880
:10009000E50F0008E50F0008E50F0008E50F000870
:1000A000E50F0008E50F0008E50F0008E50F000860
:1000B000E50F0008E50F0008E50F0008E50F000850
:1000C000E50F0008E50F0008E50F0008E50F000840
:1000D000E50F0008E50F0008E50F0008E50F000830
:1000E000E50F0008E50F0008E50F0008E50F000820
:1000F000E50F0008E50F0008E50F0008E50F000810
:10010000E50F0008E50F0008E50F0008E50F0008FF
:10011000E50F0008E50F0008FD2F0008E50F0008B7
:10012000E50F0008E50F0008E50F0008E50F0008DF
:10013000E50F0008E50F0008E50F0008E50F0008CF
:10014000E50F0008E50F0008E50F0008E50F0008BF
:10015000E50F0008E50F0008E50F0008E50F0008AF
:10016000E50F0008E50F0008E50F0008E50F00089F
:10017000E50F0008E50F0008E50F0008000000008B
:10018000E50F0008E50F0008E50F0008E50F00087F
:10019000E50F0008E50F0008E50F0008E50F00086F
:0C01A00009300008E50F000815300008C9
:1001B00010B5054C237833B9044B13B10448AFF3A1
:1001C00000800123237010BDE00400200000000027
:1001D0002455020808B5034B1BB103490348AFF38C
:1001E000008008BD00000000E4040020245502083F
:1001F00001F0FF01102A2BDB10F0070F08D010F8D8
:10020000013B013A8B422DD010F0070F42B3F6D1DB
:10021000F0B441EA012141EA014122F007047FF0F4
:1002200000070023F0E80256083C85EA010586EA4B
:10023000010685FA47F5A3FA87F586FA47F6A5FA87
:1002400087F68EB9EED1F0BC01F0FF0102F0070293
:1002500032B110F8013B013A83EA010313B1F8D13E
:100260000020704701387047002D06BF354603381F
:10027000073815F0010F07D1013015F4807F02BF58
:10028000013015F4C03F0130F0BC0138704700BFA9
:10029000034613F8012B002AFBD1181A01387047C6
:1002A00081F0004102E000BF83F0004330B54FEA27
:1002B00041044FEA430594EA050F08BF90EA020F94
:1002C0001FBF54EA000C55EA020C7FEA645C7FEA27
:1002D000655C00F0E2804FEA5454D4EB5555B8BF4A
:1002E0006D420CDD2C4480EA020281EA030382EABB
:1002F000000083EA010180EA020281EA0303362D4D
:1003000088BF30BD11F0004F4FEA01314FF4801C1F
:100310004CEA113102D0404261EB410113F0004F31
:100320004FEA03334CEA133302D0524263EB4303E8
:1003300094EA050F00F0A780A4F10104D5F1200E86
:100340000DDB02FA0EFC22FA05F2801841F10001E1
:1003500003FA0EF2801843FA05F359410EE0A5F1B5
:1003600020050EF1200E012A03FA0EFC28BF4CF0E6
:10037000020C43FA05F3C01851EBE37101F000459C
:1003800007D54FF0000EDCF1000C7EEB00006EEBA9
:100390000101B1F5801F1BD3B1F5001F0CD3490833
:1003A0005FEA30004FEA3C0C04F101044FEA44528A
:1003B00012F5800F80F09A80BCF1004F08BF5FEA11
:1003C000500C50F1000041EB045141EA050130BDF1
:1003D0005FEA4C0C404141EB0101013C28BFB1F503
:1003E000801FE9D291F0000F04BF01460020B1FA4E
:1003F00081F308BF2033A3F10B03B3F120020CDA21
:100400000C3208DD02F1140CC2F10C0201FA0CF0FE
:1004100021FA02F10CE002F11402D8BFC2F1200C63
:1004200001FA02F120FA0CFCDCBF41EA0C01904019
:10043000E41AA2BF01EB0451294330BD6FEA040462
:100440001F3C1CDA0C340EDC04F11404C4F120024D
:1004500020FA04F001FA02F340EA030021FA04F35F
:1004600045EA030130BDC4F10C04C4F1200220FAB6
:1004700002F001FA04F340EA0300294630BD21FAF4
:1004800004F0294630BD94F0000F83F4801306BFBA
:1004900081F480110134013D4EE77FEA645C18BFAE
:1004A0007FEA655C29D094EA050F08BF90EA020F45
:1004B00005D054EA000C04BF1946104630BD91EA3D
:1004C000030F1EBF0021002030BD5FEA545C05D140
:1004D0004000494128BF41F0004130BD14F580047F
:1004E0003CBF01F5801130BD01F0004545F0FE41F3
:1004F00041F470014FF0000030BD7FEA645C1ABF28
:10050000194610467FEA655C1CBF0B46024650EA5E
:10051000013406BF52EA033591EA030F41F400218A
:1005200030BD00BF90F0000F04BF0021704730B510
:100530004FF4806404F132044FF000054FF00001E5
:1005400050E700BF90F0000F04BF0021704730B5A6
:100550004FF4806404F1320410F0004548BF40427B
:100560004FF000013EE700BF42004FEAE2014FEAD0
:1005700031014FEA02701FBF12F07F4393F07F4FAB
:1005800081F06051704732F07F4208BF704793F0AE
:100590007F4F04BF41F40021704730B54FF46074C1
:1005A00001F0004521F000411CE700BF50EA0102C4
:1005B00008BF704730B54FF000050AE050EA01026D
:1005C00008BF704730B511F0004502D5404261EBDD
:1005D00041014FF4806404F132045FEA915C3FF41E
:1005E000D8AE4FF003025FEADC0C18BF03325FEABB
:1005F000DC0C18BF033202EBDC02C2F1200300FA6C
:1006000003FC20FA02F001FA03FE40EA0E0021FA90
:1006100002F11444BDE600BF70B54FF0FF0C4CF47E
:10062000E06C1CEA11541DBF1CEA135594EA0C0F30
:1006300095EA0C0F00F0DEF82C4481EA030621EA6B
:100640004C5123EA4C5350EA013518BF52EA0335A6
:1006500041F4801143F4801338D0A0FB02CE4FF058
:100660000005E1FB02E506F00042E0FB03E54FF088
:100670000006E1FB03569CF0000F18BF4EF0010E80
:10068000A4F1FF04B6F5007F64F5407404D25FEA7C
:100690004E0E6D4146EB060642EAC62141EA55512F
:1006A0004FEAC52040EA5E504FEACE2EB4F1FD0C71
:1006B00088BFBCF5E06F1ED8BEF1004F08BF5FEAEF
:1006C000500E50F1000041EB045170BD06F00046A1
:1006D00046EA010140EA020081EA0301B4EB5C044E
:1006E000C2BFD4EB0C0541EA045170BD41F4801146
:1006F0004FF0000E013C00F3AB8014F1360FDEBF6B
:10070000002001F0004170BDC4F10004203C35DA46
:100710000C341BDC04F11404C4F1200500FA05F3C9
:1007200020FA04F001FA05F240EA020001F000426A
:1007300021F0004110EBD37021FA04F642EB0601E0
:100740005EEA430E08BF20EAD37070BDC4F10C040A
:10075000C4F1200500FA04F320FA05F001FA04F2CE
:1007600040EA020001F0004110EBD37041F10001BA
:100770005EEA430E08BF20EAD37070BDC4F12005C5
:1007800000FA05F24EEA020E20FA04F301FA05F22D
:1007900043EA020321FA04F001F0004121FA04F2D5
:1007A00020EA020000EBD3705EEA430E08BF20EAA5
:1007B000D37070BD94F0000F0FD101F000464000DF
:1007C00041EB010111F4801F08BF013CF7D041EA61
:1007D000060195F0000F18BF704703F00046520065
:1007E00043EB030313F4801F08BF013DF7D043EA36
:1007F0000603704794EA0C0F0CEA135518BF95EAEC
:100800000C0F0CD050EA410618BF52EA4306D1D172
:1008100081EA030101F000414FF0000070BD50EA91
:10082000410606BF1046194652EA430619D094EA1B
:100830000C0F02D150EA013613D195EA0C0F05D105
:1008400052EA03361CBF104619460AD181EA030159
:1008500001F0004141F0FE4141F470014FF0000011
:1008600070BD41F0FE4141F4780170BD70B54FF0AC
:10087000FF0C4CF4E06C1CEA11541DBF1CEA13552C
:1008800094EA0C0F95EA0C0F00F0A7F8A4EB05040E
:1008900081EA030E52EA03354FEA013100F0888005
:1008A0004FEA03334FF0805545EA131343EA1263CE
:1008B0004FEA022245EA111545EA10654FEA002683
:1008C0000EF000419D4208BF964244F1FD0404F53C
:1008D000407402D25B084FEA3202B61A65EB030598
:1008E0005B084FEA32024FF480104FF4002CB6EB55
:1008F000020E75EB030E22BFB61A754640EA0C00D5
:100900005B084FEA3202B6EB020E75EB030E22BF14
:10091000B61A754640EA5C005B084FEA3202B6EB55
:10092000020E75EB030E22BFB61A754640EA9C0014
:100930005B084FEA3202B6EB020E75EB030E22BFE4
:10094000B61A754640EADC0055EA060E18D04FEAA2
:10095000051545EA16754FEA06164FEAC30343EA42
:1009600052734FEAC2025FEA1C1CC0D111F4801F0F
:100970000BD141EA00014FF000004FF0004CB6E708
:1009800011F4801F04BF01430020B4F1FD0C88BFA7
:10099000BCF5E06F3FF6AFAEB5EB030C04BFB6EBB2
:1009A000020C5FEA500C50F1000041EB045170BDA5
:1009B0000EF0004E4EEA113114EB5C04C2BFD4EBD2
:1009C0000C0541EA045170BD41F480114FF0000E56
:1009D000013C90E645EA060E8DE60CEA135594EAD2
:1009E0000C0F08BF95EA0C0F3FF43BAF94EA0C0FD5
:1009F0000AD150EA01347FF434AF95EA0C0F7FF44A
:100A000025AF104619462CE795EA0C0F06D152EA9D
:100A100003353FF4FDAE1046194622E750EA410681
:100A200018BF52EA43067FF4C5AE50EA41047FF492
:100A30000DAF52EA43057FF4EBAE12E74FF0FF3CF7
:100A400006E000BF4FF0010C02E000BF4FF0010CC8
:100A50004DF804CD4FEA410C7FEA6C5C4FEA430C41
:100A600018BF7FEA6C5C1BD001B050EA410C0CBF90
:100A700052EA430C91EA030F02BF90EA020F0020F2
:100A8000704710F1000F91EA030F58BF994208BF59
:100A900090422CBFD8176FEAE37040F00100704716
:100AA0004FEA410C7FEA6C5C02D150EA013C07D16D
:100AB0004FEA430C7FEA6C5CD6D152EA033CD3D0B8
:100AC0005DF8040B704700BF8446104662468C46B2
:100AD0001946634600E000BF01B5FFF7B7FF0028E5
:100AE00048BF10F1000F01BD4DF808EDFFF7F4FF0E
:100AF0000CBF012000205DF808FB00BF4DF808ED99
:100B0000FFF7EAFF34BF012000205DF808FB00BFBB
:100B10004DF808EDFFF7E0FF94BF012000205DF8DD
:100B200008FB00BF4DF808EDFFF7CEFF94BF012092
:100B300000205DF808FB00BF4DF808EDFFF7C4FF8B
:100B400034BF012000205DF808FB00BF4FEA410CD4
:100B50007FEA6C5C02D150EA013C0AD14FEA430CB7
:100B60007FEA6C5C02D152EA033C02D14FF00000F4
:100B700070474FF0010070474FEA410212F5001232
:100B800015D211D56FF47873B3EB625212D94FEAD4
:100B9000C12343F0004343EA505311F0004F23FABE
:100BA00002F018BF404270474FF00000704750EA13
:100BB000013005D111F0004008BF6FF000407047D0
:100BC0004FF00000704700BF7BB972B90029BEBF6B
:100BD00000204FF0004106E008BF00281CBF6FF066
:100BE00000414FF0FF3000F0D3B9ADF1080C6DE9D2
:100BF00004CE002909DB002B1ADB00F04DF8DDF8EC
:100C000004E0DDE9022304B07047404261EB41019A
:100C1000002B1BDB00F040F8DDF804E0DDE90223E7
:100C200004B0404261EB4101524263EB4303704721
:100C3000524263EB430300F02FF8DDF804E0DDE9F6
:100C4000022304B0404261EB41017047524263EB22
:100C5000430300F021F8DDF804E0DDE9022304B0ED
:100C6000524263EB4303704753B94AB9002908BFA6
:100C700000281CBF4FF0FF314FF0FF3000F088B963
:100C8000ADF1080C6DE904CE00F006F8DDF804E0E3
:100C9000DDE9022304B070472DE9F047089D8E4638
:100CA00004468846002B4AD18A42174662D9B2FAD6
:100CB00082F64EB1C6F1200301FA06F820FA03F3DA
:100CC000B74043EA0808B4404FEA174E1FFA87FCC2
:100CD000B8FBFEF1230C0EFB118843EA084301FB2D
:100CE0000CF29A4209D9FB1801F1FF3080F0EA803A
:100CF0009A4240F2E78002393B449A1AA3B2B2FB0F
:100D0000FEF00EFB102243EA024300FB0CFC9C4564
:100D100009D9FB1800F1FF3280F0D6809C4540F2E3
:100D2000D3803B44023840EA0140A3EB0C0300218E
:100D30001DB1F3400022C5E90032BDE8F0878B42C7
:100D400005D90DB1C5E9000100210846F5E7B3FA60
:100D500083F1002946D1734502D3824200F2058116
:100D6000841A6EEB030201209046002DE5D0C5E900
:100D70000048E2E7002A00F09080B2FA82F6002EE6
:100D800040F0A4808A1A030C4FEA174E80B2BCB21E
:100D90000121B2FBFEFC0EFB1C2243EA024304FBD2
:100DA0000CF29A4207D9FB180CF1FF3802D29A4292
:100DB00000F2E080C4469B1AB3FBFEF20EFB123336
:100DC00040EA034302FB04F49C4207D9FB1802F1FA
:100DD000FF3002D29C4200F2CA8002461B1B42EA4C
:100DE0000C40A5E7C1F120068B4022FA06F71F430D
:100DF0000EFA01F420FA06F32EFA06FE4FEA17491E
:100E0000234300FA01F81FFA87FCBEFBF9F01C0C23
:100E100009FB10EE44EA0E4400FB0CFEA64502FA64
:100E200001F209D93C1900F1FF3A80F09C80A645F7
:100E300040F2998002383C44A4EB0E041FFA83FE72
:100E4000B4FBF9F309FB13444EEA044403FB0CFC26
:100E5000A44508D93C1903F1FF3E80F08280A445E7
:100E60007FD9023B3C4443EA0040A4EB0C04A0FBC6
:100E700002EC64457346E14662D35FD05DB1B8EBE6
:100E8000030264EB090404FA06F622FA01F31E4396
:100E9000CC40C5E9006400214FE7B1FBF2FC010C36
:100EA00041EA0E4180B240EA01423B4638463C46A8
:100EB000B846BE462026B1FBF7F1A2EB080241EA94
:100EC0000C4166E7014618E710462CE7C6F1200200
:100ED0002EFA02F3B740B14020FA02F24FEA174E61
:100EE0000A43B3FBFEF8BCB20EFB1833110C41EA07
:100EF000034108FB04F9B04089454FEA104380B232
:100F00003ED9791808F1FF3C01D289451FD8A1EBE1
:100F10000901B1FBFEF909FB04F80EFB191192B2AD
:100F200042EA0142424529D2BA1809F1FF31C4D23E
:100F30004245C2D2A9F102013A44BEE7F0459DD232
:100F4000BEEB02036CEB070C0138E14696E7A7EB1A
:100F500009094944A8F1020CB1FBFEF909FB04F8A8
:100F6000DBE773467FE7504666E70846FDE63B440D
:100F7000023A33E7ACF1020C3B441CE749469CE7DC
:100F8000A1EB0901C446B1FBFEF909FB04F8C4E773
:100F9000704700BFDFF834D0002103E00C4B5B58F2
:100FA000435004310B480C4B42189A42F6D30B4A7B
:100FB00002E0002342F8043B094B9A42F9D303F0C4
:100FC00001FA22F01FFB01F0FDF87047000003203A
:100FD000C4FE070800000020D8020020E004002022
:100FE000B0370120FEE7704708B500F0BBFDBDE853
:100FF000084000F03FBD00F0B7BD704710B50421B8
:10100000044620F024FC204610BD000038B50C4BEF
:101010000C4C18800C4B822019806368984740F66E
:10102000110398420AD1094D23682C608220984709
:101030002B688220DB689847002038BD0120FCE740
:1010400006050020540000200405002008050020AB
:101050004FF4A071F020FFF7D9BF0000F7B5394D6C
:101060002B6804461B6982209847208000284ED0B8
:101070002B680DF106025B6901A982209847324B6B
:101080001B78002B4BD0BDF8062040F674639A42C3
:101090003FD9ADF80630BDF806209B1A9BB20A2B4B
:1010A00042D90B22B3FBF2F3284A1288934201D9AA
:1010B000013A93B2BDF80420254840F6B8318A427F
:1010C00034D8C2F571620E32016892B20F25B2FBBC
:1010D000F5F2204D2D88AA4284BF05F1FF35AAB252
:1010E0008A4215468EB22AD9921B91B21A4E37689F
:1010F000BB42BAB28CBF9A1AD21A92B211440529D5
:10110000C4BF05603360036863803368A38003B0A5
:10111000F0BDB32A9CBFB422ADF80620BBE7BDF8F2
:101120000630A3F5B473B9E70023C3E7C2F56D62D7
:10113000083292B20E2A0168C8D800252A46891AB8
:1011400089B2D3E70805002000190020040500201B
:101150000005002006050020FC04002037B5684685
:101160000D461446FFF77AFFBDF8000030B1BDF818
:1011700002302B60BDF804302360012003B030BD85
:10118000032821D8DFE800F0020B12190F4B1A6870
:10119000B2FA82F2520904210D4803F0A7BB0B4BAF
:1011A0005A68B2FA82F252090821F5E7074B9A68A9
:1011B000B2FA82F252091021EEE7044BDA68B2FA71
:1011C00082F252092021E7E7704700BF0C0500209A
:1011D00000100240032821D8DFE800F0020B1219AA
:1011E0000F4B1A68003A18BF012204210D4803F082
:1011F0007DBB0B4B5A68003A18BF01220821F5E766
:10120000074B9A68003A18BF01221021EEE7044B01
:10121000DA68003A18BF01222021E7E7704700BFD3
:101220000C0500200010024003280DD8DFE800F074
:101230000206080A0421054803F05DBB0821FAE70D
:101240001021F8E72021F6E7704700BF00100240A8
:1012500008B5032811D8DFE800F0020A0C0E0421BB
:10126000074803F03DFB431E5842584108BD082182
:10127000F6E71021F4E72021F2E70020F3E700BFB2
:101280000010024070B5084D00240126E0B2FFF7BF
:10129000DFFF18B12B68012B18BF2E600134052C1D
:1012A00005F10405F2D170BD0C050020012380F882
:1012B000781080F879307047704700207047000040
:1012C000034B4164003918BF01211970704700BFFA
:1012D0006F2A0120704700207047836B0BB10846CE
:1012E000184770474FF6FF707047406803689B6966
:1012F00018477047704770477047704710B50446ED
:1013000000F048FD23680349D3F890302046BDE83B
:1013100010401847000000D008B503680446D3F811
:101320008430984723682046DB6F984700F0ECF83C
:10133000236820465B6F9847292001F035FA00F0BA
:10134000E3F8236820465B6F9847F8E710B504463A
:1013500008F020FE23682046D3F8BC30BDE81040DA
:10136000184700F0FBBC00F0FFBC00F031BD00F0FE
:10137000D1BC00F041BD00F049BD00F0D5BC08F083
:1013800037B810B58421044620F061FA204610BD1C
:1013900010B590F8341090F878400C4B8C421A78C5
:1013A00009D03AB90A4A0B491488088810800C8081
:1013B00001221A7010BD002AFCD0054A0549148884
:1013C000088810800C800022F3E700BF682A012003
:1013D000642A0120662A012070B50D46194635B9E8
:1013E000094B0A4A0A4840F2FF2121F06DF9C0E991
:1013F0000F52084B003A18BF01221A700368BDE86B
:101400007040D3F89030184798550208D05502081C
:101410001E5602086E2A012008B5094B1B888B4214
:1014200003D8084B1B88934205D9074B074A084845
:10143000A32121F049F9074B1980074B1A8008BDF9
:10144000642A0120662A012063560208C656020853
:101450001E5602086A2A01206C2A0120034690F8D1
:101460007A0018B1586803681B6818477047000075
:10147000012108B50022084605F08AFC0A4B1860D5
:1014800028B90A4B0A4A28210A4821F01DF90022EE
:101490000421012005F01BFD074B186018B9074B0C
:1014A000034A2C21F0E708BD200500200957020857
:1014B00052570208815702081C050020D557020820
:1014C000024B4FF0FF31186805F0ACBC200500203E
:1014D000014B186805F0D2BC20050020024B00210A
:1014E000186805F09FBC00BF20050020FFF7F0BF83
:1014F00003480449006800231A4605F023BD00BFD5
:101500001C0500200400002013B5084C00231A46D7
:1015100001A9206805F047FD20684FF0FF33002245
:1015200001A905F040FD02B010BD00BF1C05002060
:1015300003685B6C18470120704703689B6A184773
:10154000FEE740F2EF307047054B0360054B4FF06C
:101550008062C3F88820BFF34F8FBFF36F8F70474F
:101560000C63020800E100E010B504464FF45A6134
:10157000FFF7EAFF204620F06AF9204610BD000080
:1015800082B0002301930E4B1A6B42F400021A63DF
:101590001A6B02F400020192019A1A6942F40002E5
:1015A0001A611A6922F400021A61064B064A1A618E
:1015B000064A5A61064B4FF080629A6002B070474B
:1015C00000380240281B002021180008411500089F
:1015D00000E100E008B50A2809D8DFE800F00610AD
:1015E0000E080808081010101000022008BD054B56
:1015F000054A0648902121F067F80020F6E701200F
:10160000F4E700BF17580208325802087D58020854
:1016100038B50C46887FFFF7DDFFA58AE28A164BB6
:101620002169586342EA05425A64628BD963521BAE
:101630001A642568082D0ED19A611A615862207FBC
:101640000E4A42EA0062DA61E2681A620C4A5961A3
:10165000D9601A6038BD0022D8611A61E1680A0AAF
:10166000480902F4784200F4FC600243C1F3C4016B
:101670000A439A63034AECE700B002400900010004
:10168000012302000123030008B50B280BD8DFE873
:1016900000F00612100A0A0A0A08080808080220C0
:1016A00008BD0520FCE7054B054A06486F2121F0DF
:1016B0000BF80020F4E70120F2E700BF17580208FA
:1016C000CF5802087D5802082DE9F04191F81D809D
:1016D0000C464046FFF7D8FFA77F05463846FFF780
:1016E000D3FF06463846FFF775FFA18A628B444B4D
:1016F000521A1A649A61228B521A1A61E28A58634A
:1017000042EA01425A6421696268D963DA6020685A
:10171000802828D0227F0FD8202867D0402865D085
:1017200004281AD0364B45EA026545F40035B84521
:10173000DD6161D0334A44E0B0F5807F04D0B0F57C
:10174000007FEFD1304800E0304840EA0262DA61C1
:10175000E2681A625E62596132E045EA026242F46E
:101760000032DA61F6E7A068021DDA62227F45EAFC
:10177000026545F40035DD615E625961017841B171
:10178000012921D0224B234A23484FF48D7120F0A8
:101790009BFFDA69418822F47F42013922F010026E
:1017A00042EA0122DA610121154BDA6942F0200296
:1017B000DA61DA699206FCD410229A600029B9D065
:1017C000164A1A60BDE8F081B2F1FF01DA6940887B
:1017D00022F47F4200F1FF3022F0100242EA0022A0
:1017E00042F0100218BF0121DA61DDE745EA02622A
:1017F000034B42F40032B4E742F20132E1E700BFAA
:1018000000B0024001230100090002000A000200AA
:1018100019590208335902087D58020801230200B1
:10182000024B1B68586803685B691847702A0120DF
:1018300070B5044625460A4B0C30002660602672BF
:10184000667245F8203B6022294608F0F9FC04F551
:101850005A63EE6024359D42FBD1204670BD00BF27
:101860000C630208034B1A68D207FCD423229A6047
:10187000704700BF00B002407047000030B50F4C09
:101880002568ED07FCD423250904A56041F001017A
:101890000225FF2B65636164E0630AD00849656235
:1018A00041EA0363E361074B22626061E060236009
:1018B00030BDE561039BA363034BF8E700B0024032
:1018C00009000100010002000100030030B50E4CC8
:1018D0002568ED07FCD423251204A56042F001021F
:1018E0000225FF2B65636264E063E16008D01B069C
:1018F00043F00213E361054B65626061236030BD14
:10190000034BE3610123F9E700B00240010002004C
:10191000020002FF30B50B4C2568ED07FCD42325EF
:1019200012041B06A56043F40033022542F00102B5
:1019300065636264E063E160E361034B656260617B
:10194000236030BD00B0024001000200012070475A
:101950000C2070470C2303FB0100083070470C2358
:1019600003FB010008307047012070474FF42170DD
:1019700070474FF4217303FB0100083070474FF4A8
:10198000217303FB010008307047012070471020CD
:10199000704700EB01100830704700EB0110083071
:1019A0007047084601F034BD10B5034B0360044690
:1019B00007F073FA204610BDC463020810B5044650
:1019C000FFF7F2FF204614211FF041FF204610BD13
:1019D00010B5034B0360044607F05FFA204610BDC4
:1019E0009063020810B50446FFF7F2FF20464FF45B
:1019F00023711FF02CFF204610BD000010B5034BD3
:101A00000360044607F049FA204610BD5C630208F3
:101A100010B50446FFF7F2FF204618211FF017FF0C
:101A2000204610BD10B5084B0360044600F52E702B
:101A3000FFF7BAFF04F12C00FFF7CAFF04F114000E
:101A4000FFF7DCFF204610BDF863020808B5024826
:101A5000FFF7E8FF08BD00BFFC13002010B50446E7
:101A6000FFF7E0FF204640F23C411FF0F0FE204629
:101A700010BD00002DE9F34101F040FB054601F0E7
:101A800041FB00240146234628462246009410F0DC
:101A90004BFE274B274A1A60204602F0B7F8264D26
:101AA000264B274A27489A6010F0A6FD2B68BFF303
:101AB0005B8FDB0735D428461FF0CBFE88B3224C62
:101AC000224B236004F5387604F1140004F12C084D
:101AD00004F52E776060C4F80880E760266107F09F
:101AE000DDF91B4B6361404607F0D8F9194BE362FF
:101AF000384607F0D3F9184BC4F8B83204F5337000
:101B000002F008F9224604F53371304602F0F8F885
:101B1000304601F07DFC114820F0F4FD28461FF00E
:101B2000A4FE0F4802B0BDE8F041FFF7E7BB00BFDD
:101B3000D42A0120A8050020F8130020C8050020A1
:101B4000AC05002008000020FC130020F863020808
:101B50005C63020890630208C46302084D1A00081F
:101B600024050020704700000148FFF7D5BB00BFE7
:101B70002405002070B5264E264C274D274B2360A8
:101B80003046FFF755FE284615F0D4FE24480EF0E7
:101B9000DBFA244B2448DC6000224FF48071C3E957
:101BA000121222491A86C3E91A12214983F85820D1
:101BB000C3E91E011F49C3F880101F491F480B606D
:101BC000F021C3E90422C3E90622C3E90822C3E9DC
:101BD0000A22C3E90E22C3E91022C3E91422C3E991
:101BE00017225A6683F870205A67C3E9016501809D
:101BF0001348018013484FF4A071018012480180FE
:101C000012490A70012283F83420114A1A6070BD0B
:101C100054060020F4130020C8050020885502084F
:101C2000AC05002024050020000001010100000196
:101C3000000450001A001400702A0120642A0120B8
:101C40006A2A0120662A01206C2A0120682A0120C4
:101C5000206202080148FFF777BC00BF540600204D
:101C60000020704781807047C180704701817047B4
:101C7000418170477047704770477047704710B494
:101C8000C4880368121B84885B6D091B12B25DF85F
:101C9000044B09B218474FF6FF7383814FF0FF33AF
:101CA00003621368C36110607047002070478B881F
:101CB000838001207047704780F82610704790F8A5
:101CC0002600704710B50022B1F90840B1F90A109A
:101CD000028042808480C18010BD00220280428048
:101CE0008280C28070470177704780ED080A704794
:101CF00080F82410704780F8251070470120704745
:101D0000983070478C307047843070477047704708
:101D100070470000034B902283F85A2383F858231E
:101D2000704700BF00E100E0094A0A49D3680A4849
:101D3000C3F30A03013B9BB20B801169C1F30A0193
:101D4000013901801364536B43F0010353637047FF
:101D5000006801403A18002038180020014BD3F8E1
:101D6000AC00704700680140024B0122C3F8AC1080
:101D70005A6270470068014010B52C2104461FF0DC
:101D800066FD204610BD10B5BC2104461FF05FFD66
:101D9000204610BD70B5044607F07FFB23689D6E9A
:101DA0000CF06AFF01462046A8472368054AD3F88D
:101DB0008C502046AC460023BDE87040A2F5163199
:101DC000604700BF00B004D007F04EBB07F058BB1F
:101DD00007F014BB07F083BC90F8252012B103680C
:101DE0005B691847704790F825201AB190F82420B5
:101DF00002B1186070470000034B4FF080629A6098
:101E00004FF080729A60704700E100E0084B4FF09D
:101E10008062C3F88820BFF34F8FBFF36F8F4FF0FE
:101E20008072C3F88820BFF34F8FBFF36F8F704766
:101E300000E100E070B50023124E8380124B036076
:101E4000336893F8582005460AB1D86C00B99868F1
:101E50000368DB6A98473368B0FA80F4D86C640989
:101E600030B10368DB6A9847002808BF44F00104DA
:101E70002CB9064B064A07482C2120F025FC2846A1
:101E800070BD00BF702A01200C640208715902085D
:101E9000CF590208085A020870B5254E3568BFF3BD
:101EA0005B8F15F0010540D130461FF0D2FC0028B1
:101EB0003BD0204C204B256104F13400C4E90035AF
:101EC000C4E90255E584A562A5850EF022FC04F163
:101ED000580009F069FE194BA3652046184B40F8DD
:101EE000843BFFF7A7FF174BC4F884302433C4F8B2
:101EF0008C304FF4C803C4E928350023C4F8AC3053
:101F0000C4F8B030C4F8B430C4F8B8300E480F4B41
:101F1000C4F89050C4F89C50C4F8A850C4F8983045
:101F200020F0F0FB30461FF0A0FC024870BD00BF5F
:101F30003C180020401800200C6A02082C6402089B
:101F4000A4640208C0690208111D0008A069020803
:101F500038B5184C23685BB3174B184A1B6C1188B3
:101F60008B4216D1164B198803F0D6FA236893F8E2
:101F70006A200025013283F86A2083F87C50FFF73D
:101F8000B7FA206808F006F82846BDE83840FFF7A1
:101F9000F7B803F0C1FA2468236820461B6A984703
:101FA000012384F87C300020BDE83840FFF712B9E7
:101FB00038BD00BF702A0120006801403A18002097
:101FC0003818002070B586B01E460123002415463F
:101FD0000191029301A9032304930394059402F051
:101FE0009BFB01A92846CDE90164039402F094FB10
:101FF00006B070BD2DE9F84305460E4617469846D3
:1020000002F014FA04464146384602F069FC012801
:1020100037D04FF01809002431460122284602F03B
:1020200065FC012000F06CF841463846640002F07F
:1020300057FC08B144F0010400223146284602F062
:1020400055FC012000F05CF8B9F10109E4D123024C
:102050004FF00102314628464CBF44F07F4424F043
:102060007F4402F043FC012000F04AF82846002299
:10207000314602F03BFC012000F042F82046BDE86A
:10208000F88302F0D3F9001BB0F57A7FBBD94FF08B
:10209000FF34F3E707B5064BADF806001B680548AB
:1020A00001220DF1060103F0E7FF03B05DF804FB28
:1020B00014000020D419002008B50F4D0F4C012149
:1020C000284602F00DFC01212070284602F008FC91
:1020D00001212070284602F003FC012120702846CF
:1020E00002F0FEFB01212070284602F0F9FB20706F
:1020F000322006F0B3FAE2E70000024010000020B0
:1021000038B5084D2B6800225A620446284604F070
:1021100003FA2A68536AA342FCD3BDE83840014859
:1021200004F030BA8C19002030B595B0102200218F
:102130000AA821F05CF91422002103A821F057F924
:1021400000241E4B01941A6C42F080521A641B6CDE
:1021500003F080530193019B194B02941A6842F4D7
:1021600040421A601B6803F4404302930122029B21
:102170004FF48033CDE9082302254FF48003082172
:10218000CDE90E534FF4B473CDE9101308A804231E
:102190001393129503F018FA03F0DCF90F23CDE93D
:1021A00003354FF4A0504FF48053CDE906030521C9
:1021B00003A8059403F0E4FB15B030BD00380240DD
:1021C0000070004080B59AB002F00AF9FFF7ACFF4A
:1021D000142200210DA821F00AF90024C74B009415
:1021E0001A6BC748C74DDFF85893DFF858A342F081
:1021F00010021A631A6B02F010020092009A019406
:102200001A6B42F020021A631A6B02F0200201924C
:10221000019A02941A6B42F080021A631A6B02F060
:1022200080020292029A03941A6B42F004021A632B
:102230001A6B02F004020392039A04941A6B42F0A0
:1022400001021A631A6B02F001020492049A0594C7
:102250001A6B42F002021A631A6B02F00202059234
:10226000059A06941A6B42F040021A631A6B02F048
:1022700040020692069A07941A6B42F008021A630B
:102280001B6B03F00803224607933C21079B02F0D7
:102290002DFB9D480122022102F028FB22469A488C
:1022A000042102F023FB224698484FF4804102F0BB
:1022B0001DFB224696484FF4405102F017FB224680
:1022C00094484FF4005102F011FB01263C23CDE964
:1022D0000D368B480F9403230DA90227109302F0AB
:1022E0001BFA89480DA9CDE90D76CDE90F4402F01E
:1022F00013FA042384480DA9CDE90D36CDE90F4723
:1023000002F00AFA4FF4881383480D960DA9CDE91F
:102310000E3402F001FA4FF480537C480F940DA95B
:10232000CDE90D344FF4804802F0F6F977480DA955
:10233000CDE90D86CDE90F4402F0EEF94FF440539C
:1023400073480DA9CDE90D36CDE90F4702F0E4F948
:102350004FF400536F480DA9CDE90D36CDE90F4478
:1023600002F0DAF922460521062002F08BF8062059
:1023700002F0BAF869486A4B036002F0C3F8694B8F
:102380002C622846C5E90093C5E90484C5E90244E6
:10239000C5E9064402F0C6FC1021284602F00AFFF7
:1023A00021462846604D02F024FF4FF48273C5E9B0
:1023B00000A34FF400721823C5E9062328460A2318
:1023C000C5E90244C5E90444C5E90844AC62EB62CE
:1023D00003F0F6FD8F23224639464B488DF8243012
:1023E0008DF8344002F082FA32464FF47A7309A92C
:1023F000284603F041FE4FF47A7332460DA9284671
:1024000003F0E6FF324639463F48484D02F06EFA87
:102410009DF83430D32B04BF454B1E70454B01262D
:10242000C5E90036102240230024C5E904234FF4F7
:10243000C073C5E906344FF40063C5E908344FF4AE
:10244000005302274FF00409AB624FF0030A072341
:102450000DA92846CDE90D73CDE90F934FF008087B
:10246000C5E90249CDE911A7139703F08DFC4FF69A
:10247000FF7209A92846CDE90A86089409960C94AA
:1024800003F0A2FC304601F0D7FF4FF6FF7209A916
:102490002846CDE90978CDE90B6403F095FC4FF6A9
:1024A000FF7209A92846CDE909A8CDE90B9403F0EC
:1024B0008BFC4FF40C730893089B0C934FF6FF7240
:1024C00009A92846CDE909980B9603F07DFC40F256
:1024D0006A51284603F096FC34220DEB0200214697
:1024E00020F085FF144D154B2C61C5E900340923FC
:1024F000C5E905361D23C5E9073A25E00038024045
:1025000000100240D41A00200008024000040240DB
:10251000000C02400018024000000240681B00202E
:1025200000300240A0860100D419002010190020BC
:1025300000190020400100A02C1A00200068014072
:10254000005C00400050014040F20D1140F2431386
:10255000C5E9091340F2171040F24713C5E90B0310
:102560002846C5E90244AC8685F8364002F0DCFE18
:10257000FF214FF4806CF022CDE912140521CDE942
:1025800014C14FF4A0730DA9CDE90E24CDE9164274
:1025900028462246354D1893CDE910370D94ADF8F5
:1025A00064408DF8664002F08AFF314B2B601B6857
:1025B00098472B682F4DDB6898472F4B2846C5E975
:1025C0000034C5E90274C5E90A47C5E90C4401F0C5
:1025D000A9FF3146284602F05BF8284D284BAC6035
:1025E000C5E9003428464FF6FF73EB60CDE90D4492
:1025F000AC6104F005F90DA92846CDE90D4404F0BD
:102600002BF9DFF8B0E01F484FF4E133C0E900E3F5
:102610000C23C0E90534C0E902440461C46104F03C
:1026200019FAFEF7E1FCFEF7DEFC4FF48053194681
:10263000154A1648FFF7C6FC04F02EFB144A15484D
:10264000214604F055FB144B144A186021461448E7
:1026500004F04EFB134B144A18602146134804F053
:1026600047FB134B186004F029FBFEE7FC18002021
:102670001C000020281B002000B002408C19002004
:10268000001400404419002000040240000C0240E5
:1026900030650208E12800080C1900200C650208CA
:1026A000F70F000808190020E8640208B9200008A4
:1026B0000419002000100140704770477FB5094B96
:1026C0008DF817201B6802930DF117020123009269
:1026D00001930A460146044802F0CCFB07B05DF8BE
:1026E00004FB00BF18000020D41A00207FB500238F
:1026F0008DF81730084B1B6802930A4601230DF131
:102700001701009101930146044802F043FC9DF833
:10271000170007B05DF804FB18000020D41A002051
:102720001FB5084C24680092CDE901340A46012304
:102730000146054802F02EFC003818BF012004B005
:1027400010BD00BF18000020D41A002001F074BE94
:1027500010B5064C00222046042102F0C7F820469E
:102760000122BDE81040042102F0C0B80008024078
:1027700038B50B4D044601220A484FF4005102F0CF
:10278000B5F800220421284602F0B0F82046FFF7F1
:1027900081FC28460122BDE83840042102F0A6B899
:1027A00000080240000C024038B50B4D04460022E0
:1027B0000A484FF4005102F099F8002204212846FB
:1027C00002F094F82046FFF765FC28460122BDE898
:1027D0003840042102F08AB800080240000C024090
:1027E000F7B5144E144F05460C463046002204211E
:1027F00002F07CF800224FF40051384602F076F8DF
:102800002846FFF747FC0D4B0D481B68224601A9DF
:1028100003F0DEFD384601224FF40051019C02F026
:1028200065F830460122042102F060F8204603B02A
:10283000F0BD00BF00080240000C02401400002060
:10284000D419002001F0F8BD2DE9F8430025DFF888
:102850004090DFF8408006462C462F46B54207DB05
:102860003246F31720463946FEF7AEF9BDE8F88345
:102870004FF480534A4619464046FFF7BBFB041904
:1028800047EBE077012004F077FA0135E6E700BF77
:1028900000040240000C02402DE9F0410024DFF862
:1028A0003C800D4F0A2625464FF480534246194678
:1028B0003846FFF79FFB041945EBE075012004F053
:1028C0005BFA013EF0D10A22002320462946FEF79A
:1028D0007BF9BDE8F08100BF000C0240000402401B
:1028E0002DE9F04F4FF4C87091B004F045FA0A207A
:1028F000FFF7AAFF474ADFF830A1DFF81CB1034613
:1029000040210646684620F0F9FC6846FDF7C0FC09
:102910004FF0FF3382B269463F4804F0CAF8002006
:1029200001F028FA002001F01BFA00252F46A946E5
:10293000142004F021FAFFF7AFFF431CF8D0DAF8B7
:102940000030B0EB060848BFA6EB00084624B8FBF1
:10295000F4F4A34211D0314ACAF800402346402182
:10296000684620F0CBFC6846FDF792FC4FF0FF3341
:1029700082B26946584604F09CF8ADBB40F633037A
:1029800098453CDD264A23464021684620F0B6FCA7
:102990006846FDF77DFC4FF0FF3382B2694658462A
:1029A00004F087F8284601F0DBF901350A2004F02D
:1029B000E3F9AC42F6DAA14510DA05254FF0FF3015
:1029C00001F0D8F9C82004F0D7F9204601F0D2F977
:1029D000C82004F0D1F9013DF0D1A146642004F0F3
:1029E000CBF927460125A3E74FF0FF3001F0B8F9F6
:1029F0004FF4AF7004F0C0F9384601F0B1F9094B5B
:102A00001B78012B94D10020002501F0A9F92F4655
:102A10008EE700BF6A5A020844190020785A02085B
:102A2000895A0208100000200C0000200268034BA5
:102A30009A4201D101F0EEBC704700BF0010004087
:102A40007047000082B00E4B00220092596C41F496
:102A500080415964596C01F48041009100990192C0
:102A6000196C41F0805119641B6C03F08053019381
:102A7000019B0F216FF0010002B001F003BD00BF08
:102A8000003802400268094B9A4282B00BD1002301
:102A90000193074B1A6B42F480521A631B6B03F4C9
:102AA00080530193019B02B0704700BF0030024089
:102AB0000038024007B50F4B02689A4216D1002237
:102AC000A3F5F0430192196B41F4000119631B6BEC
:102AD00003F40003019305215A20019B01F0D2FC6D
:102AE0005A2003B05DF804EB01F0FEBC03B05DF8C2
:102AF00004FB00BF00B002402DE9F043044689B05A
:102B00001422002103A820F072FC2268244B9A4270
:102B100043D1244C244800250095236B43F0040343
:102B20002363236B03F004030093009B0195236B45
:102B300043F001032363236B03F001030193019B23
:102B40004FF012094FF400734FF0010803270426D9
:102B500003A9CDE90339CDE90587079601F0DCFD2E
:102B60004FF480731148079603A9CDE90339CDE9E5
:102B7000058701F0D1FD0295236C43F40003236423
:102B8000236C03F400030293029B236A43F40003C3
:102B90002362236A23F40003236209B0BDE8F083B3
:102BA000005C004000380240000802400000024083
:102BB000F0B599B004461422002107A820F017FCB4
:102BC00030220DEB0200002120F011FC22685E4B48
:102BD0009A4240F0B78008230C93C023109304233B
:102BE00012930CA84FF40033159302F0A1FF08B123
:102BF000FFF726FF554B5648002400945A6C42F0CC
:102C000080625A645A6C02F080620092009A0194C9
:102C10001A6B42F020021A631A6B02F02002019232
:102C2000019A02941A6B42F001021A631A6B02F0C5
:102C300001020292029A03941A6B42F002021A6392
:102C40001A6B02F002020392039A04941A6B42F088
:102C500040021A631A6B02F040020492049A05942F
:102C60001A6B42F004021A631A6B02F00402059216
:102C7000059A06941A6B42F008021A631B6B03F064
:102C80000803069302250E26069B0B964FF48063DD
:102C900007A9CDE90735CDE9094501F03DFD41F62C
:102CA00058032C480B9607A9CDE907350927CDE92C
:102CB000094501F031FD032327480B9707A9CDE90A
:102CC0000735CDE9094501F027FD4FF4706322482F
:102CD0000B9607A9CDE90735CDE9094501F01CFDA3
:102CE0004FF40C631D480B9607A9CDE90735CDE9D4
:102CF000094501F011FDC02319480B9607A9CDE93C
:102D00000735CDE9094501F007FD082315480B9665
:102D100007A9CDE90735CDE9094501F0FDFC4FF4E0
:102D2000A0530E480B9707A9CDE90735CDE9094512
:102D300001F0F2FC58202246052101F0A3FB5820A7
:102D400001F0D2FB19B0F0BD00680140003802402C
:102D5000001402400000024000040240001802403B
:102D600000080240000C024010B5044688B014224E
:102D7000002103A820F03BFB2268144B9A4223D188
:102D800003F56843002101915A6C114842F4801206
:102D90005A645A6C02F480120192019A02911A6BE1
:102DA00042F020021A631B6B03F020030293029B84
:102DB0004FF4607202230321CDE903230523CDE9FB
:102DC000061303A901F0A8FC08B010BD0050014093
:102DD000001402400268094B9A4282B00BD10023D2
:102DE0000193074B1A6C42F020021A641B6C03F02B
:102DF00020030193019B02B0704700BF0014004004
:102E00000038024010B5044688B01422002103A8FF
:102E100020F0EDFA2268144B9A4223D103F5943343
:102E2000002101915A6C114842F010025A645A6C08
:102E300002F010020192019A02911A6B42F0010213
:102E40001A631B6B03F001030293029B4FF4C062F1
:102E500002230321CDE903230723CDE9061303A9A8
:102E600001F05AFC08B010BD001001400000024003
:102E70002DE9F04186B0002303932B4B1C68002CF6
:102E80004FD14FF00108C3F80080284B00949A6B93
:102E9000274842EA08029A639B6B03EA08030093FF
:102EA000022703260C25009B01A94FF63F03CDE91D
:102EB0000137CDE9046501F02FFC1E48059501A9F5
:102EC000CDE90187CDE9034601F026FC48F2331332
:102ED0001948059501A9CDE90137CDE9034601F06F
:102EE0001BFC4FF683731548059501A9CDE9013701
:102EF000CDE9034601F010FC4CF203731048059530
:102F000001A9CDE90137CDE9034601F005FC6023B5
:102F10000C48059501A9CDE90137CDE9034601F03B
:102F2000FBFB06B0BDE8F081701B002000380240BA
:102F30000014024000080240001802400010024045
:102F4000000C02400004024070B588B000230293D8
:102F5000204B1A6C42F010021A641B6C03F0100331
:102F60000293054601A903A8029B02F0C3FD069B3C
:102F70004BBB02F09FFD184E184B336040F2E73315
:102F8000F360174BB0FBF3F3013B73603046002353
:102F90003361B360B36103F033FC044680B930465B
:102FA00003F004FB044658B9362001F09DFA0F2DBA
:102FB0000DD822462946362001F064FA094B1D60DF
:102FC000204608B070BD02F075FD4000D3E7012433
:102FD000F6E700BF00380240741B002000100040DC
:102FE00040420F00840000207047FEE7FEE7FEE746
:102FF000FEE77047012001F089BC0000014803F0A2
:1030000013BB00BF741B0020014802F0FBB900BFD6
:103010002C1A0020014801F0B1BA00BF281B002083
:103020000120704708B520F0E7FA162303604FF03F
:10303000FF3008BD08B520F0DFFA16230360FEE775
:1030400070B50D4614460E46731B9C4201DC2046AB
:1030500070BDAFF3008006F8010BF5E770B50D46C3
:1030600014460E46731B9C4201DC204670BD16F8C8
:10307000010BAFF30080F5E74FF0FF3070474FF4DE
:1030800000534B60002070470120704700207047BC
:103090000A4A116808B5034609B909491160106860
:1030A000694603448B4206D920F0A6FA0C2303603C
:1030B0004FF0FF3008BD1360FCE700BFBC1B0020D1
:1030C000B0370120704710B5042104461EF0BFFB45
:1030D000204610BD012908B506D0022908D059B9EB
:1030E00000F0E0FD006808BD00F0DCFD4068FAE794
:1030F00000F0D8FD8068F6E70020F4E7004870474C
:10310000686502080220704713B5002451B10368B6
:1031100001948DF8034001AA9C680DF10303A047B8
:1031200002B010BD0846FBE7C0897047008A7047AF
:10313000C088704780887047807A00F07F007047B1
:10314000807AC00970470020704700009FED010A97
:10315000704700BF00000000704710B5082104460A
:103160001EF075FB204610BD7047704700F5987340
:103170000868496803C370477047704741607047EB
:1031800070477047064BC0F84C310023C0F85031EF
:1031900000F5A273C0F84801C0F84031704700BF85
:1031A00045320008012303727047704710B4C268AB
:1031B00041685410034601EB6200D20748BF0A5928
:1031C0009B685DF8044B48BFD358184703464068D6
:1031D00030B19A681AB9D86800F001007047012030
:1031E000704710B50C2104461EF031FB204610BD7F
:1031F00010B5102104461EF02AFB204610BD10B564
:103200004FF4AE7104461EF022FB204610BD10B5EF
:103210000BF032FD0368BDE81040DB6B184710B5BA
:103220000446D0F8400158B10368DB68984738B1CC
:10323000D4F8400103689B6898470023C4F84031E4
:1032400010BD00002DE9F14FD0E9556A0746B0687E
:1032500003681B6A9847B0F5217F05D2444B454A65
:10326000A32145481FF030FA706803681B6A98472D
:103270000F2803D8414B3F4AA421F2E7F0680368C6
:103280001B6A98470B2803D83D4B3A4AA521E8E72B
:103290000BF0F2FCDFF8F09004300BF012FDD9F8DF
:1032A000000010B10368DB689847D9F8000010B13E
:1032B00003681B689847DFF8D480D8F8000010B185
:1032C00003685B699847D7F83C0110B103685B68F5
:1032D0009847D8F8000010B103681B689847D7F8E2
:1032E0003C0110B103689B689847F06803680021AF
:1032F0005B6A98474FF0000B224BC0F804B00446BD
:1033000080F808B00360B068036859465B6A984764
:10331000054600F077FD7068036859465B6A984778
:103320002946064600F04CFD331DC7F83C61C9F83C
:103330000040C8F80050CAF800302B68C6F808A052
:103340002846DB68EE639847336830461B68984729
:10335000214628460DF040FE236820461B69984709
:1033600023685B69204601B0BDE8F04F184700BFF5
:10337000C65A0208545B0208265C02086D5C02080B
:10338000105D020814660208B82A0120B42A012040
:10339000044B1B6893F858200AB1D86C00B99868A0
:1033A000704700BF702A0120F8B5174604460E4644
:1033B0000BF024FD124B1C60124B2360124B0025B6
:1033C000C4E95135114BC4E953551868036801210C
:1033D0009B68C4E94F55C4E955769847284600F0E4
:1033E00015FCFFF7D5FF16F04EF9FFF7D1FF16F0E9
:1033F000C5F9FFF7CDFF16F0CDF92046F8BD00BFA7
:10340000C42A0120C0650208A8650208702A0120AC
:10341000064BC0F84C310023C0F8503100F5A273C0
:10342000C0F84801C0F84031704700BF453200087D
:10343000406A7047806A704770478A880B8810B569
:10344000D20A4C88C1699BB251F8220043EA044376
:10345000184410BD10B50446BAB1107B68B1537B57
:10346000D27A1B0203F4E0631A43236A03EB82035C
:103470001A888A4202D193F9020010BD05D801389A
:1034800080B204330028F3D1F7E70020F5E710B548
:103490002C2104461EF0DBF9204610BD30B58BB060
:1034A0000446BDF860500895BDF85C5007959DF83E
:1034B000505006959DF84C5005959DF84850049540
:1034C0009DF8445003959DF8405002959DF83C505E
:1034D0000195BDF8385000950DF0D8F9064B2360E2
:1034E000159BE361169B2362199B63621A9BA3627F
:1034F00020460BB030BD00BF3866020870477047E9
:1035000070477047704730B5036885B06D460181DC
:10351000D3F88430014604462846984795E80700CA
:103520003C3484E8070005B030BD30B5036885B091
:103530006D464181D3F884300146044628469847B9
:1035400095E807003C3484E8070005B030BD002250
:10355000028042808280C280704780F836107047B7
:1035600070B5036804461B6B1546984723682946C7
:1035700020465B6EBDE87040184700207047806CA5
:10358000704770477047704710B54C2104461EF0D5
:103590005EF9204610BD10B54FF4217104461EF0AF
:1035A00056F9204610BD08B5FEF716FC08BD000010
:1035B000036870B55E6B124B1B6804468DB22BB965
:1035C000104B114A6C2111481FF07EF81049828D72
:1035D0000988914203D80F4B0B4A6D21F3E713F88A
:1035E00012200D4B1B6853F8220003681B6B984791
:1035F000291A3346204609B2BDE87040184700BF7B
:10360000C82A0120B35D0208F55D0208305E020899
:10361000CC2A0120775E0208D02A012000224FF038
:10362000FF31C0E900218260704770B5036804462D
:103630001B6B154698472368294620465B6BBDE8FF
:103640007040184770B504461D46BDF91060FFF77D
:10365000ECFF2368294620469B6B98472368314638
:103660002046DB6BBDE87040184700000022C0E92F
:103670000122C0E90322C0E90522C0E907224FF474
:1036800080728284014A0260704700BFA06602080F
:1036900038B5262204460D4600211FF0A8FE20461C
:1036A000FFF7E4FF064B23602B88E384FF232046CB
:1036B00084F82830294608F0E4FE204638BD00BFD3
:1036C000C86B020810B52622044600211FF08FFEA9
:1036D0002046FFF7CBFF0A4B23600A4BA3624FF64D
:1036E000FF73A3854FF47F020023C4E90C322387C4
:1036F0004FF0FF32C4E91023E363204610BD00BF42
:10370000D06A0208986502082DE9F04F04468DB092
:10371000274600250DF0B4FA9E4BE56347F8403B81
:103720002622294638461FF062FE3846FFF79EFFE4
:10373000994B236404F16C0BFF2384F8663004F189
:10374000980A4FF6FF760AA9A566584604F1C409FF
:10375000ADF82860FFF79CFF0AA9504604F5887869
:10376000ADF82860FFF794FF8C4E4846FFF7AAFF9C
:10377000C4F8C460C4F80C514046FFF7A3FF04F539
:10378000AE73C4F81061C4F8585118460393FFF79C
:1037900099FF04F5D27318460493FFF793FF04F5DD
:1037A000F67318460593FFF78DFF4FF4A0732A4672
:1037B000009329463846F023261DFFF743FF4FF0BC
:1037C0007F43A3663946304605F07CFB2A462946EE
:1037D0005846FFF72AFF4FF001030AA95846ADF8F3
:1037E000283008F04EFE5946304605F06BFB2A2281
:1037F00050461C21FFF719FF0AA95046ADF8285082
:1038000008F03FFE5146304605F05CFB1A2200925C
:103810004846B5223E230821FFF714FF604BC4F849
:10382000F430D4F8C430A4F8F85006AF494638460E
:10383000D3F88430DFF878A1984797E8070004F5BB
:10384000807383E8070004F50D73C4F80C314FF062
:10385000030B0AA94846A4F83452CDF828A0ADF8C5
:103860002CB008F047FD4946304605F02BFB1A22E4
:1038700000924046B5223E23AF21FFF7E3FE484BBE
:10388000C4F84031D4F81031A4F8445141463846C8
:10389000D3F88430984797E8070004F5A67383E8C7
:1038A000070004F51773C4F858310AA94046A4F874
:1038B0005C52CDF828A0ADF82CB008F01BFD4146B5
:1038C000304605F0FFFA039887222946FFF7ADFE40
:1038D000344B0399C4F88C313846A4F8905108F061
:1038E00061FA97E8070004F5CC7383E80700022328
:1038F0000398ADF82C300AA9CDF828A008F0FAFCFE
:103900000399304605F0DEFA04988722B521FFF7C7
:103910008CFE254B0499C4F8D4313846A4F8D8510C
:1039200008F040FA97E8070004F5F07383E8070011
:103930004FF001030498ADF82C300AA9CDF828A067
:1039400008F0D8FC0499304605F0BCFA05980A2224
:103950003621FFF76AFE154B0599C4F81C3238462C
:10396000A4F8205208F01EFA97E8070004F50A733D
:1039700083E807000598CDF828A00AA9ADF82C50D7
:1039800008F0B8FC3046059905F09CFA20460DB0C9
:10399000BDE8F08F98670208606B020808670208AC
:1039A00000D912FF3333FFFF3838FFFF9000FFFFCD
:1039B000986502087047000030B5164D2C6814F069
:1039C00001048FB0BFF35B8F20D128461DF041FF6B
:1039D000E0B13F230993104B0893104B1049114855
:1039E0000A940122CDE906430423CDE903320A23D8
:1039F0000093CDE90B44CDE901440594FFF74EFD5A
:103A000009481EF07FFE28461DF02FFF05480FB025
:103A100030BD00BFC01B0020A4800208B080020897
:103A2000B47E0208C41B0020B539000870470000AE
:103A300030B5164D2C6814F001048FB0BFF35B8FC6
:103A400020D128461DF005FFE0B13F230993104B1C
:103A50000893104B104911480A940122CDE90643FE
:103A60000423CDE9033228230093CDE90B44CDE9AB
:103A700001440594FFF712FD09481EF043FE284655
:103A80001DF0F3FE05480FB030BD00BFF01B002055
:103A9000A8800208B4800208C47E0208F41B00203B
:103AA0002D3A00087047000030B5174D2C6814F00F
:103AB00001048FB0BFF35B8F22D128461DF0C9FEF1
:103AC000F0B13F230993114B0893114B0793012346
:103AD000CDE9054304930423CDE9024310230D49A6
:103AE000009321221323CDE90B440B480A9401943F
:103AF000FFF7D4FC09481EF005FE28461DF0B5FE70
:103B000005480FB030BD00BF201C0020AC8002086B
:103B1000B8800208D47E0208241C0020A53A0008C0
:103B200000207047002070470EB403B503AB00219E
:103B300053F8042B01930CF027F902B05DF804EB65
:103B400003B070470CB407B504AB53F8042B0193D2
:103B50000CF01AF903B05DF804EB02B070470000F6
:103B6000436C10B5044673B3038F2BB9184B194A35
:103B7000C52119481EF0A8FDC38E00EB43035B8CE2
:103B80000BB30DF082FF238F012B03D8134B144A84
:103B9000CB21EEE7E28E531C9BB2092B194688BF5E
:103BA000A3F10A0104EB410140F63F10498C814228
:103BB00009D10A2B04EB420228BF002304EB430384
:103BC000508C588451842046BDE810400DF060BEF2
:103BD000B55E0208BE5E0208695F0208B35F0208B4
:103BE000C15F02080DF01BBE10B586B002AC84E8C0
:103BF00006001A460AAB05930193099B00932146E0
:103C0000089B0AF0D7FB06B010BD000038B518BB02
:103C1000124B13481C681349B4B122682244026055
:103C2000626822440A60A26814440F4B00221A8082
:103C300000F038F8054600F033F80C4B1C600C4BD4
:103C40001D600C4B188007E00B4B03600B4B0B60A7
:103C50000B4B1C68002CE8D138BD00BF5C1C002059
:103C6000541C0020501C0020581C0020C82A012091
:103C7000D02A0120CC2A0120CC800208BC80020876
:103C80001C810208044B1B6853F82100034B1B687E
:103C900003EB4000704700BF501C0020541C002064
:103CA0000420704700487047601C002010B5FFF7E3
:103CB000FBFE044C2060FFF7BBFE6060FFF77CFE5C
:103CC000A06010BD601C002010B5002404600C60D2
:103CD00014601C6010BD704710B54FF4AE710446FF
:103CE0001DF0B5FD204610BD10B50446D0F85801B2
:103CF00000F01CF82046BDE810400BF03FB8000073
:103D000010B50446FFF750FB014B2360204610BD61
:103D1000CC6702080022C0E900220272C26002746D
:103D2000014A1060704700BF6C1C0020037A10B578
:103D300004463BB100230372006818B10368616850
:103D40009B689847237C4BB120680023237428B1DB
:103D50000368E168DB68BDE81040184710BD00004B
:103D6000034B1B6813B1012258601A72704700BFE1
:103D70006C1C0020034B1B6813B10122D8601A741D
:103D8000704700BF6C1C00207047043870477047B4
:103D900010B5102104461DF05AFD204610BDA0F1BB
:103DA0000400F5E7C06800F039B8A0F10400FFF79F
:103DB000F9BFC06800F04CB8A0F10400FFF7F9BFEC
:103DC00000228260024A026020324260C160704775
:103DD000206802087047000010B5034B03600446DA
:103DE000FFF7D0FB204610BD5868020810B5044606
:103DF000FFF7F2FF20464FF421711DF028FD204609
:103E000010BD000010B50446FFF77EFC014B236097
:103E1000204610BD58680208FFF7B5BB0B1E10B551
:103E2000044600F50D7009DA074A28210EF0D6FB8A
:103E300004F1C400BDE810400CF0D0B8034A2821BA
:103E40000EF0CCFBF4E700BF775A0208936002083B
:103E50000B1E10B5044600F5177009DA074A282131
:103E60000EF0BCFB04F58870BDE810400CF0B6B84D
:103E7000034A28210EF0B2FBF4E700BF775A02088C
:103E800093600208F02070474FF4A070704729201B
:103E9000FEF78ABC2820FEF787BC08B5FEF758FC61
:103EA000CA20FEF781FCC320FEF762FC0820FEF763
:103EB0005FFC5020FEF75CFCCF20FEF775FC002075
:103EC000FEF756FCC120FEF753FC3020FEF750FCF5
:103ED000ED20FEF769FC6420FEF74AFC0320FEF7A4
:103EE00047FC1220FEF744FC8120FEF741FCE8204D
:103EF000FEF75AFC8520FEF73BFC0020FEF738FC5D
:103F00007820FEF735FCCB20FEF74EFC3920FEF77B
:103F10002FFC2C20FEF72CFC0020FEF729FC34207F
:103F2000FEF726FC0220FEF723FCF720FEF73CFC00
:103F30002020FEF71DFCEA20FEF736FC0020FEF7ED
:103F400017FC0020FEF714FCB120FEF72DFC00202A
:103F5000FEF70EFC1B20FEF70BFCB620FEF724FC40
:103F60000A20FEF705FCA220FEF702FCC020FEF7A7
:103F70001BFC1020FEF7FCFBC120FEF715FC1020F7
:103F8000FEF7F6FBC520FEF70FFC4520FEF7F0FB21
:103F90001520FEF7EDFBC720FEF706FC9020FEF78C
:103FA000E7FB3620FEF700FCC820FEF7E1FBF2201D
:103FB000FEF7FAFB0020FEF7DBFBB020FEF7F4FB78
:103FC000C220FEF7D5FBB620FEF7EEFB0A20FEF777
:103FD000CFFBA720FEF7CCFB2720FEF7C9FB042070
:103FE000FEF7C6FB2A20FEF7DFFB0020FEF7C0FB32
:103FF0000020FEF7BDFB0020FEF7BAFBEF20FEF726
:10400000B7FB2B20FEF7D0FB0020FEF7B1FB002012
:10401000FEF7AEFB0120FEF7ABFB3F20FEF7A8FB4F
:10402000F620FEF7C1FB0120FEF7A2FB0020FEF701
:104030009FFB0620FEF79CFB2C20FEF7B5FBC8205B
:10404000FEF700FC2620FEF7AFFB0120FEF790FBF9
:10405000E020FEF7A9FB0F20FEF78AFB2920FEF7E0
:1040600087FB2420FEF784FB0C20FEF781FB0E204B
:10407000FEF77EFB0920FEF77BFB4E20FEF778FB68
:104080007820FEF775FB3C20FEF772FB0920FEF757
:104090006FFB1320FEF76CFB0520FEF769FB172072
:1040A000FEF766FB1120FEF763FB0020FEF760FBC6
:1040B000E120FEF779FB0020FEF75AFB1620FEF701
:1040C00057FB1B20FEF754FB0420FEF751FB112089
:1040D000FEF74EFB0720FEF74BFB3120FEF748FBB7
:1040E0003320FEF745FB4220FEF742FB0520FEF79A
:1040F0003FFB0C20FEF73CFB0A20FEF739FB282093
:10410000FEF736FB2F20FEF733FB0F20FEF730FBC8
:104110001120FEF749FBC820FEF794FB2920FEF78B
:1041200043FBBDE808402C20FEF73EBB08B5FEF778
:104130000FFB0321D320FEF753FB80B208BD10B55F
:10414000C4B2022203212046FEF7B8FA0A20FEF785
:10415000FDFA204600220321FEF7B0FABDE8104028
:104160000220FEF7F3BA38B50446E4B2FEF7A4FA2B
:1041700000212046FEF7BAFA012105462046FEF747
:10418000B5FA40EA052080B238BD10B5C4B240216E
:104190002046FEF7ABFA030607D54C212046FEF772
:1041A000A5FA003818BF012010BD01224B2120467E
:1041B000FEF784FA204600224B21FEF77FFA00200A
:1041C000F2E773B50423C4B20E461546D7210DEBB2
:1041D00003022046FEF7A4FA019B1BBA1A0DC3F393
:1041E0000B23328020462B8001224B21FEF766FAFA
:1041F00000224B212046FEF761FA02B070BD00009C
:1042000010B50A4A1378984204460DD05178884276
:104210000AD00BB141B90123D454FEF74DFA204620
:10422000BDE81040FFF78BBF10BD00BF701C002021
:1042300010B5C4B209212046FEF758FA40F0010239
:10424000D2B220460921BDE81040FEF737BA10B5BA
:10425000C4B209212046FEF749FA092100F0FE0206
:104260002046BDE81040FEF729BA38B5C4B20D4665
:1042700020460A21FEF73AFA40EA0502D2B2204669
:104280000A21BDE83840FEF719BA10B50446FEF71A
:1042900014FA20461F21FFF7E8FF2046BDE8104032
:1042A000FFF7C6BF38B5C4B20D4620460A21FEF757
:1042B0001DFA20EA0502D2B220460A21BDE83840A4
:1042C000FEF7FCB910B50446FFF7C1FF20461F21D9
:1042D000BDE81040FFF7E6BF10B5C0B20C460B2199
:1042E000FEF704FA204010BD1F21FFF7F5BF0A4674
:1042F000C0B20B21FEF7E2B91F21FFF7F8BF38B5B6
:10430000C4B20D4620461721FEF7F0F920EA050257
:10431000D2B220461721BDE83840FEF7CFB970B5BC
:10432000C4B2064604212046FEF7E0F9042100F05D
:10433000FB0205462046FEF7C1F93046F021FFF7A3
:10434000DEFF05F0F80220460421FEF7B7F9492206
:1043500020212046FEF7B2F90220FEF7F7F92046A9
:1043600001222121FEF7AAF920469A224121FEF7D7
:10437000A5F9204601224A21FEF7A0F92046012294
:104380004B21FEF79BF9204600224B21FEF796F9C0
:10439000204601225621FEF791F92046012258219C
:1043A000FEF78CF9204601224021FEF787F92046CE
:1043B000FF220B21FEF782F9BDE870400220FEF7D4
:1043C000C5B90000054BD3F8882042F47002C3F849
:1043D00088204FF000629A60704700BF00ED00E057
:1043E00008B50B4B1A6842F400721A601A6842F45E
:1043F00080621A601A6842F480721A60032000F02A
:104400002FF80020FEF7A0FDFEF71CFB002008BDE2
:10441000003C0240034A044B11681B780B441360B4
:10442000704700BF741C002080000020014B1868FA
:10443000704700BF741C002038B50446FFF7F6FF34
:10444000631C1CBF054B1B78054618BFE418FFF71B
:10445000EDFF431BA342FAD338BD00BF800000200C
:104460000749CA6822F4E0620302120403F4E0631D
:10447000120C134343F0BF6343F40033CB60704727
:1044800000ED00E0164B30B5DC68C4F30224C4F143
:104490000703251D042B28BF0423062D4FF0FF35ED
:1044A0008CBF033C002405FA03F321EA0303A54073
:1044B00022EA0502A340002843EA0203ACBF00F150
:1044C0006040084A4FEA0313B8BF00F00F00DBB2A8
:1044D000AABF00F56140135480F8003330BD00BF1F
:1044E00000ED00E014ED00E0002807DB044A41097C
:1044F000012300F01F00834042F82130704700BFC5
:1045000000E100E010B5044650B1437903F0FF022A
:1045100013B90271FEF7B6FA01236371002010BDD2
:104520000120FCE710B5044620B390F8393003F0C1
:10453000FF021BB980F83820FEF7BCFA022384F88A
:104540003930236861681A6822F440320A431A60DD
:104550005A6BA16822F007020A435A631A6CE16899
:104560006FF30D020A431A6400200123E06384F80C
:10457000393010BD0120FCE770477047036870B503
:104580005E681D68F207044614D5E90512D51A685D
:1045900022F480721A60C26B42F00102C2630122EF
:1045A0009A60042380F83930002380F8383043695A
:1045B00003B19847B20616D5AB0414D523681A6820
:1045C00022F400521A6020229A60E36B43F0020347
:1045D000E363042384F83930002384F838306369B6
:1045E0000BB120469847300716D5290514D5236806
:1045F0001A6822F400621A6008229A60E36B43F0A2
:104600000403E363042384F83930002384F838304A
:1046100063690BB12046984772070BD56B0509D526
:1046200023681A6822F480621A6004229A60204685
:10463000FFF7A2FFB00714D5A90512D523681A68A1
:1046400022F400721A6002229A60E36BE363012392
:1046500084F83930002384F8383023690BB12046C0
:104660009847F20613D5EB0411D523681A6822F493
:1046700080521A6010229A60E36BE363012384F88E
:104680003930002384F838302046FFF776FF70BDBC
:10469000F0B590F83820012A03464FF002002BD0E5
:1046A000012283F8382083F8390003EB0112D2E9A4
:1046B0000740556A174F44EA0040093C012C9CBF53
:1046C00005F07F4210434FEA01161A6888BF40EA9E
:1046D000056091B9516A394001435162012C9969D1
:1046E000916103D8596A21F07F4191620122002033
:1046F00083F8392083F83800F0BDD169394001438F
:10470000D1619919012C896911619CBF25F07F4500
:104710001562EBE7F0FFFC002DE9F74FDFF8BC91E5
:104720006C4A00230D6801249C4004EA0506AC4352
:1047300040F0B7804D68032705F003044FEA4308B3
:1047400007FA08FC671E012F6FEA0C0C34D8876843
:1047500007EA0C0ECF6807FA08F747EA0E078760EA
:10476000476827EA060EC5F300179F4047EA0E0781
:104770004760C76807EA0C0E8F6807FA08F747EA30
:104780000E07022CC76019D14FEAD30A00EB8A0A40
:1047900003F0070BDAF820704FEA8B0B4FF00F0E87
:1047A0000EFA0BFE27EA0E0E0F6907FA0BF747EA1F
:1047B0000E07CAF8207001E0032CDAD1076804FA6A
:1047C00008F407EA0C073C4315F4403F046068D046
:1047D00000240194D9F8444044F48044C9F844408A
:1047E000D9F8444023F0030707F1804704F48044DC
:1047F00007F59C37019403F0030C019CD7F808E0FF
:104800004FEA8C0C0F2404FA0CF42EEA040E324CFE
:10481000A0424DD004F58064A0424BD004F58064E2
:10482000A04249D004F58064A04247D004F58064DA
:10483000A04245D004F58064A04243D004F58064D2
:10484000A04241D004F58064A0423FD004F58064CA
:10485000A0423DD004F58064A04214BF0A2409247C
:1048600004FA0CF444EA0E04BC609468F74315F4AF
:10487000801F0CBF3C4034439460D46815F4001F83
:104880000CBF3C403443D460546815F4003F0CBF67
:104890003C40344354601468ED0354BF3C403443FF
:1048A00014600133102B7FF43DAF03B0BDE8F08FEF
:1048B0000024D5E70124D3E70224D1E70324CFE77E
:1048C0000424CDE70524CBE70624C9E70724C7E77E
:1048D0000824C5E7003C01400000024000380240C7
:1048E0000369194214BF0120002070470AB1816199
:1048F00070470904FBE7436901EA030221EA030167
:1049000041EA02418161704770470000044A5169E1
:10491000014208B502D05061FFF7F6FF08BD00BFA5
:10492000003C014001684B6913F480634FF00002C2
:1049300010D06FF480634B612023026380F83D3018
:1049400080F83E20036C80F83C2043F004030364AD
:1049500001207047184670472DE9F84606460F4675
:1049600091461D464FEA114A3368BAF1010F0CBF58
:104970005C699C6927EA0404A4B2B4FA84F464096B
:10498000A14501D0002025E06A1CEED0FFF74EFDC6
:10499000089BC01AA84201D8002DE5D13368BAF1AE
:1049A000010F0CBF5B699B6927EA03039BB2B3FA53
:1049B00083F35B099945D7D100232022336386F81E
:1049C0003D2086F83E30326C86F83C3042F02002C2
:1049D00032640120BDE8F8862DE9F04104460F4617
:1049E000164698462568686927EA000080B2C0B17B
:1049F0006B695A0517D52B6843F400732B606FF46D
:104A000080636B6120220023236384F83D2084F8B7
:104A10003E30236C43F004032364002384F83C30CD
:104A20000120BDE8F081731CDDD0FFF7FFFCA0EB97
:104A30000800B04201D8002ED4D123685A6927EA71
:104A4000020292B2002ACDD000232022236384F8F0
:104A50003D2084F83E30236C1343DDE770B50446F7
:104A60000D46164623685B691B0601D500201EE033
:104A70002046FFF757FFC8B96A1CF3D0FFF7D6FCF2
:104A8000801BA84201D8002DECD123685B6913F08C
:104A90008003E7D12022236384F83D2084F83E3050
:104AA000226C84F83C3042F020022264012070BD68
:104AB0002DE9F0431546026885B0DDE90C7899468A
:104AC000136843F4807313600E463B46CDF80080B4
:104AD00000224FF001110446FFF73EFF236838B172
:104AE0001B68DB0502D54FF400732364032620E026
:104AF00006F0FE061E611A4943463A462046FFF775
:104B00006BFFA8B9236803905A6903929B690393CA
:104B1000424639462046039BFFF7A0FF064660B198
:104B2000236C042B01BF2268136843F400731360E5
:104B30000126304605B0BDE8F083B9F1010F2368C6
:104B400002D1EDB21D61F4E72A0A1A6139464246E4
:104B50002046FFF783FF0028E2D12368F1E700BF7A
:104B6000020001002DE9FF479A46036815461A68BE
:104B700042F480621A601A68DDE90C7842F48072AF
:104B80001A600E463B46CDF8008000224FF001111E
:104B90000446FFF7E1FE236838B11B68DB0544BF1C
:104BA0004FF400732364032021E05FFA86F906F0D6
:104BB000FE061E612B4943463A462046FFF70CFF8E
:104BC000A0B9236803905A6903929B6903934246F4
:104BD00039462046039BFFF741FF58B1236C042B55
:104BE00001BF2268136843F400731360012004B00E
:104BF000BDE8F087BAF1010F23681AD1EDB2424641
:104C00001D6139462046FFF729FF02460028E5D1FD
:104C100021680B6843F480730B602046CDF8008058
:104C20003B464FF00111FFF797FE226860B1136811
:104C3000B4E72A0A1A61394642462046FFF70EFFBA
:104C40000028CBD12368D9E749F001031361054956
:104C500043463A462046FFF7BFFE003818BF012002
:104C6000C5E700BF0200010070B504460D461646B8
:104C700023685B695B0701D500201EE02046FFF733
:104C800051FEC8B96A1CF3D0FFF7D0FB801BA842C5
:104C900001D8002DECD123685B6913F00403E7D140
:104CA0002022236384F83D2084F83E30226C84F86F
:104CB0003C3042F020022264012070BD70B50446F1
:104CC0000D46164621684B6913F0400301D00020C1
:104CD00011E04A69D2060FD56FF010024A61202216
:104CE000236384F83D2084F83E30236C2364002342
:104CF00084F83C30012070BDFFF798FB801BA84270
:104D000001D8002DDED123685B6913F04003D9D1AF
:104D10002022236384F83D2084F83E30236C134323
:104D2000E4E7000070B5044608B9012070BD90F8B2
:104D30003D3003F0FF021BB980F83C20FDF7DCFE9C
:104D4000242384F83D3023681A6822F001021A6097
:104D50001A6842F400421A601A6822F400421A608B
:104D600000F0A8FE3F4B65689D4294BF3E4B3F4B11
:104D700098428CBF00230123002BD6D12268394EE4
:104D800051683B4BB0FBF3F321F03F011943B542AF
:104D9000516088BF4FF49676116A88BF734321F043
:104DA0003F0184BF4FF47A76B3FBF6F301330B4334
:104DB0001362D169431E2B4821F44F41854221F0F3
:104DC000FF0132D86D0040F6FC70B3FBF5F3013300
:104DD000034242D0C3F30B031943D161D4E9073036
:104DE0001168034321F0C0010B4313609168D4E9BB
:104DF000030321F40341034321F0FF010B439360BC
:104E0000D4E90530D168034321F0FF010B43D3609F
:104E1000136843F00103136000202023206484F80A
:104E20003D30206384F83E0080E7A06850B905EB70
:104E30004505B3FBF5F30133C3F30B037BB143F437
:104E40000043C9E719206843B3FBF0F30133C3F310
:104E50000B0323B143F44043BEE70423BCE7012323
:104E6000BAE700BFA08601007F841E00FF083D0056
:104E700040420F002DE9F743044699460C9E0F4629
:104E80009046FFF7D3FA94F83D30202B054603D027
:104E9000022003B0BDE8F08300903C4919230122B1
:104EA0002046FFF759FD0028F2D194F83C30012B41
:104EB000EED02068012384F83C300368D9075EBF38
:104EC000036843F001030360036823F40063036095
:104ED000212384F83D30402384F83E3000232364AE
:104EE0000A9B6362BDF82C306385638D2385284B54
:104EF000E3624246CDE900654B4639462046FFF75E
:104F0000D7FD00282AD00120C3E7FFF7A7FD40B155
:104F1000236C042B01BF2268136843F400731360F1
:104F2000F1E7636A27681A4612F8011B3961626269
:104F3000628D218D013A92B262857A69481E80B2F3
:104F4000520720850AD548B15A783A610233636224
:104F5000638D013B02399BB221856385238D2A46EF
:104F600031462046002BD0D1FFF77EFE0028CFD15E
:104F70002268136843F400731360202384F83D30E3
:104F800084F83C0084F83E0083E700BF0200100074
:104F90000000FFFF2DE9F043044687B09946109FBB
:104FA0000D469046FFF742FA94F83D30202B064616
:104FB00004D00225284607B0BDE8F08300907A4966
:104FC000192301222046FFF7C7FC0028F1D194F8ED
:104FD0003C30012BEDD02068012384F83C3003687D
:104FE000DB075EBF036843F001030360036823F43B
:104FF00000630360222384F83D30402384F83E3070
:10500000002323640E9B6362BDF83C306385638D8F
:105010002385664BE3622946CDE900764B4642463E
:105020002046FFF79FFD054608B10125C2E7228D06
:105030002368B2B902905A6902929A690292029A5E
:105040001A6842F400721A60DFF86481238D002B25
:105050002CD1202284F83D2084F83C3084F83E3066
:10506000A8E7012A0AD11A6822F480621A60039024
:105070005A6903929A690392039AE1E7022A0ED1D0
:105080001A6822F480621A601A6842F400621A6098
:1050900004905A6904929B690493049BD4E7059099
:1050A0005A6905929B690593059BCDE7032B56D85A
:1050B000012B15D1324639462046FFF7FFFD002867
:1050C000B3D123681A69636A1A70636A0133636231
:1050D000238D013B2385638D013B9BB26385B5E73F
:1050E000022B00963B464FF000024146204619D164
:1050F000FFF732FC002898D123681A6842F4007246
:105100001A601A69636A1A70626A531C6362238D9B
:10511000013B2385638D013B9BB2638523681B693B
:105120005370D2E7FFF718FC024600287FF47DAFEA
:105130002368196821F4806119601969636A19701C
:10514000636A01336362238D013B2385638D013BD9
:105150009BB26385414600963B462046C8E73246EF
:1051600039462046FFF7AAFD00287FF45EAF23688A
:105170001A69636A1A70628D616A013A92B24B1CB5
:10518000628522686362238D5069013B9BB24007B0
:1051900023857FF55BAF032B02BF136823F4806385
:1051A000136013694B7090E7020010000000FFFFCE
:1051B0000400010010B590F83D30202BDCB216D170
:1051C000242380F83D3003681A6822F001021A6037
:1051D0005A6A22F010025A625A6A114359621A68D6
:1051E00042F001021A6080F83D40002010BD02200C
:1051F000FCE730B590F83D30202BDCB216D10268C8
:10520000242380F83D30136823F001031360556AAE
:105210004FF6F0732B400B439BB25362136843F07D
:105220000103136080F83D40002030BD0220FCE700
:105230000068D1F800C0D201843283182DE9F04310
:10524000C6685D684C68D1F8189005F470455D60DB
:10525000C5680CF10107C5F30B45C6F30B462644A0
:105260003D4445EA06455D60C668CD68C6F30A065A
:105270002E449D6805F470459D60C7688D68C7F32E
:105280000A0701353D4445EA06459D601D690E69E2
:1052900025F007051D614FF0000E1E6191F8327078
:1052A0009D6991F83180C3F818E091F8305045EAD3
:1052B000096545EA082545EA07459D615D6925F0D0
:1052C000FF055D614D695D61DD6925F4E06525F0EF
:1052D0000705DD61D1E907573D43DD619D6A4D6AF0
:1052E000C3F828E0072E9D629CBF0E4DAE5DDD6ABF
:1052F00005F0E025DD6288BF01268D6AC96AA4EB4E
:105300000C0474437543033444EA0544DC621C6BAB
:105310006FF30A041C631963835843F0010383503D
:10532000BDE8F0839C68020838B50446002863D0C5
:1053300090F8A13003F0FF021BB980F8A020FDF720
:1053400037FC022384F8A13023689A6922F0704266
:105350009A61D4E901200243E06899690243206917
:1053600002430A439A619A68244960690A409A6034
:105370009A6842EA0042A06902439A60DA68E069EA
:105380000A40DA60DA6842EA0042206A0243DA60E0
:105390001A69606A0A401A611A6942EA0042A06A00
:1053A00002431A615A690A405A615A69E16A42EA3B
:1053B0000142216B0A435A61DA6A94F8350094F885
:1053C000361002F07F42DA62DD6A94F834202A4314
:1053D00042EA002242EA0142DA625A6B42F00602D5
:1053E0005A639A6942F001029A6100200123C4F8CD
:1053F000A40084F8A13038BD0120FCE700F800F0DB
:1054000070477047036870B59E6B5D6B720704460A
:1054100014D5690712D55A6B22F004025A6304228C
:10542000DA63D0F8A43043F00103C0F8A4300023BD
:1054300080F8A12080F8A030FFF7E2FFB20716D570
:10544000AB0714D523685A6B22F002025A6302227A
:10545000DA63D4F8A4301343C4F8A430042384F8E6
:10546000A130002384F8A0302046FFF7C9FFF007E1
:1054700010D5E9070ED523685A6B22F001025A6352
:105480000122DA63002384F8A12084F8A0302046AA
:10549000FCF75EFD320711D52B070FD523685A6B39
:1054A00022F008025A630822DA63012384F8A1304B
:1054B000002384F8A0302046FFF7A3FF70BD2DE93C
:1054C000F04190F8A030012B06460F4694464FF06D
:1054D00002001FD04FF0010886F8A08086F8A100D6
:1054E00034240D4604FB02640FCD38340FC40FCDB5
:1054F0000FC40FCD0FC42B68236030466246394677
:10550000FFF796FE33680020C3F8248086F8A18058
:1055100086F8A000BDE8F08190F8A020012A03469B
:105520004FF0020012D01A6883F8A100506B20F0EF
:105530000100506306480164516B41F00101516361
:105540000020012283F8A12083F8A000704700BF4B
:105550000068014037B500230193184B184D1A6CB1
:1055600042F080521A641B6C03F080530193019B3C
:10557000144B01221A64FEF759FF04466B68DA03E4
:105580000BD5104B0E4D01225A64FEF74FFF044617
:105590006B689B030AD5002006E0FEF747FF001B5F
:1055A000B0F57A7FEAD9032003B030BDFEF73EFFA5
:1055B000001BB0F57A7FEBD9F5E700BF0038024059
:1055C0000070004000000E422DE9F341044640B354
:1055D0000368DE0710D423689D075BD4236819078E
:1055E00000F19D8023685A0700F1BD80A369002B5C
:1055F00040F0248100202CE08D4B9A6802F00C02D0
:10560000042A07D09A6802F00C02082A0BD15B68C2
:10561000590208D5864B1B689A03DCD56368002BBA
:10562000D9D1012015E06368814DB3F5803F13D1D6
:105630002B6843F480332B60FEF7F8FE7C4E054662
:1056400033689B03C7D4FEF7F1FE401B6428F7D9EB
:10565000032002B0BDE8F081B3F5A02F04D12B6880
:1056600043F480232B60E3E72A6822F480322A6027
:105670002A6822F480222A60002BDDD1FEF7D6FEB4
:1056800006462B689F03A6D5FEF7D0FE801B642834
:10569000F7D9DDE7664B9A6812F00C0F07D09A68CD
:1056A00002F00C02082A11D15B685D020ED4604A38
:1056B0001368990702D5E368012BB2D113682169F9
:1056C00023F0F80343EAC103136087E7E268594B0C
:1056D000B2B101221A60FEF7A9FE554D06462B68AD
:1056E0009B0707D52B68226923F0F80343EAC2031E
:1056F0002B6073E7FEF79AFE801B0228EFD9A7E71D
:105700001A60FEF793FE4A4E054633689F077FF501
:1057100065AFFEF78BFE401B0228F6D998E7626959
:10572000444B82B10122C3F8802EFEF77FFE404E2B
:105730000546736F9B073FF555AFFEF777FE401B9D
:105740000228F6D984E7C3F8802EFEF76FFE384EA4
:105750000546736F9F077FF545AFFEF767FE401B59
:105760000228F6D974E7324B1A6C12F0805228D115
:1057700001921A6C42F080521A641B6C03F0805341
:105780000193019B01272C4D2B68D8051BD5A368DD
:10579000274D012B27D12B6F43F001032B67FEF719
:1057A00045FE234E054641F28838336F9A0739D5B6
:1057B000002F3FF41BAF1E4A136C23F08053136479
:1057C00014E70027DFE72B6843F480732B60FEF7B4
:1057D0002DFE06462B68D905D9D4FEF727FE801B7F
:1057E0000228F7D934E7052B04D12B6F43F00403CB
:1057F0002B67D0E72A6F22F001022A672A6F22F076
:1058000004022A67002BCAD1FEF710FE41F2883845
:1058100006462B6F9B07CBD5FEF708FE801B404545
:10582000F7D915E7FEF702FE401B4045BDD90FE74B
:10583000003802400000474200700040374DAA681F
:1058400002F00C02082A3ED0022B354B4FF000022A
:105850001A662BD1FEF7EAFD06462B6899011FD484
:10586000D4E907321343626A43EA8213E26A43EAE5
:105870000263A26A5208013A43EA02436B60284B72
:10588000264D01221A66FEF7D1FD04462B689A01C7
:105890003FF5B0AEFEF7CAFD001B0228F6D9D7E6E9
:1058A000FEF7C4FD801B0228D7D9D1E6FEF7BEFD66
:1058B00004462B689B017FF59DAEFEF7B7FD001BEC
:1058C0000228F6D9C4E6012B3FF4ABAE6B68E2695F
:1058D00003F4800191427FF4A4AE216A03F03F02F9
:1058E0008A427FF49EAE616A47F6C0721A40B2EBFC
:1058F000811F7FF496AEA26A520803F44031013A48
:10590000B1EB024F7FF48DAEE26A03F07063B3EB4C
:10591000026F14BF012000209BE600BF0038024048
:1059200000004742134908B58B6803F00C03042BB1
:105930001CD0082B1CD14A684B68496813F48003BB
:1059400014BF0D480D48C1F3881118BF002302F0A1
:105950003F02A1FB0001FBF787F9064B5B68C3F32D
:10596000014301335B00B0FBF3F008BD0248FCE7E4
:105970000248FAE70038024000127A000024F400DE
:105980002DE9F0410D46044610B90120BDE8F08133
:10599000434B1A6802F00F028A4228D321688F070E
:1059A0002DD4C80740D43E4B1A6802F00F02AA4219
:1059B00065D8226851076BD4130707D5394A216986
:1059C000936823F4604343EAC1039360FFF7AAFF9F
:1059D000344B354A9B68C3F30313D35CD840334B35
:1059E0001860334B1868FDF7AFFA0020CEE7CAB253
:1059F0001A701B6803F00F038B42C6D1CEE7294B08
:105A000011F0040F1EBF9A6842F4E0529A600E072C
:105A100042BF9A6842F460429A609A68A06822F095
:105A2000F00202439A60BCE762681E4B012A1CD157
:105A30001B6813F4003FA8D01A4EB36823F0030389
:105A40001343B360FEF7F2FC41F288380746B368AF
:105A5000626803F00C03B3EB820FA4D0FEF7E6FC00
:105A6000C01B4045F3D9032090E7911E01291B6814
:105A700002D813F0007FDEE713F0020FDBE7EAB293
:105A80001A701B6803F00F03AB427FF47EAF90E700
:105A90000449E0688B6823F4E05303438B608BE791
:105AA000003C0240003802408C6802087C00002064
:105AB00084000020044B054A9B68C3F38223D35C17
:105AC000034A1068D84070470038024084680208D2
:105AD0007C000020044B054A9B68C3F34233D35C2F
